:020000040800F2
:1000000040220020890100088F0900088F0900089C
:100010008F0900088F0900088F0900088F09000860
:100020008F0900088F0900088F0900088F09000850
:100030008F0900088F0900088F090008E5090008EA
:10004000E5090008E5090008E5090008E5090008D8
:10005000E5090008E5090008E5090008E5090008C8
:10006000E5090008E5090008E5090008E5090008B8
:10007000E5090008E5090008E5090008E5090008A8
:10008000E5090008E5090008E5090008E509000898
:10009000E5090008E5090008E5090008E509000888
:1000A000E5090008E5090008E5090008E509000878
:1000B000E5090008E5090008E5090008E509000868
:1000C000E5090008E5090008E5090008E509000858
:1000D000E5090008E5090008E5090008E509000848
:1000E000E5090008E5090008E5090008E509000838
:1000F000E5090008E5090008E5090008E509000828
:10010000E5090008E5090008E5090008E509000817
:10011000E5090008E5090008E5090008E509000807
:10012000E5090008E5090008E5090008E5090008F7
:10013000E5090008E5090008E5090008E5090008E7
:10014000E5090008E5090008E5090008E5090008D7
:10015000E5090008E5090008E5090008E5090008C7
:10016000E5090008E5090008E5090008E5090008B7
:10017000E5090008E5090008E5090008E5090008A7
:10018000E5090008E50900084FF0000E00F002B88C
:100190007047000008B500F02FF800F0C1F900F03A
:1001A000C3F8104B1048DA1C121AC11E22F00302C9
:1001B000994288BF0022002102F071FD0B4B0C48D0
:1001C000DA1C121AC11E22F00302994288BF0022D3
:1001D000084902F056FD00F073FB05F0C1FE02F085
:1001E000E5FFFEE7401E0020800300207C03002086
:1001F00000000020C8140108464BD3F80028002155
:1002000042F00102C3F80028C3F80818D3F8002808
:1002100022F0847222F48032C3F800283E4AC3F8E8
:100220000428D3F8002822F48022C3F80028C3F859
:100230000C18D3F8002842F48032C3F80028374A5B
:1002400082B00192019A002A5DDC019B002B41DD06
:10025000304B3349D3F8402842F08052C3F840284D
:100260000A6842F480420A60D3F8082822F0F002BB
:10027000C3F80828D3F8082822F4604242F4004268
:10028000C3F80828D3F8082822F4E05242F4A05218
:10029000C3F80828234AC3F80428D3F8002842F0FA
:1002A0008072C3F80028D3F800289201FBD540F2F1
:1002B0000362C3F8002CD3F8082822F0030242F0AE
:1002C0000202C3F80828134AD2F8083803F00C03D6
:1002D000082BF9D10F4BD3F8302842F00F02C3F8A6
:1002E0003028D3F83428C3F83428D3F8402842F013
:1002F0008052C3F84028D3F8442842F01002C3F8D3
:10030000442802B07047D3F8002891039DD4019A85
:10031000013A96E70030024010300024ECF70C0060
:10032000007000401930400270470000030913F0CC
:100330000C0F0BD103F00F03064A00F00F0052F828
:100340002320012319B103FA00F0906170471030A7
:10035000F9E700BF8CFC00082DE9F047050915F00E
:100360000C050446C0F3031840F0C680644B53F8F4
:10037000287000F44023B3F5002F00F00F0600F0C2
:10038000A880B3F5402F00F0A680B3F5802F40F091
:10039000A480C0F30021FFF7C9FF0121EFF3118210
:1003A000802383F31188022940F0998014F4704F60
:1003B000C4F3033017D023074BBF4FF0240C4FF08A
:1003C000200CA6F1080333465CF807E09B004FF0D1
:1003D0000F0909FA03F92EEA090E00FA03F343EABA
:1003E0000E034CF80730D7F800E04FEA4609032324
:1003F00003FA09F32EEA030E6FEA030C01FA09F37C
:1004000043EA0E0303293B606BD004F44033B3F599
:10041000803F68D0B3F5003F0CBF02230023D7F81C
:100420000CE003FA09F30CEA0E0E43EA0E03FB603C
:1004300080B923074BBF24202020A6F108033346B0
:1004400050F807E09B004FF00F0A0AFA03F32EEA78
:100450000303C35101F1FF3EBEF1010F0DD804F4B7
:100460004065B5F5006F40D0B5F5406F3FD0A5F5BC
:10047000806ADAF1000545EB0A05BB6805FA09F563
:100480000CEA030C45EA0C05BD600120BEF1010F2A
:100490007B6800FA06F02CD8A5052AD5034301296C
:1004A0007B6010D0E3050ED5164D04F00C04B300AC
:1004B000615903F00C030F20984021EA000108FA6B
:1004C00003F30B436351D2B282F311880020BDE8DD
:1004D000F087022162E7032160E729465EE70020FA
:1004E00081E700239BE7012399E70225C5E7032560
:1004F000C3E723EA0003D2E76FF01500E7E700BF88
:100500008CFC000808380140C0B2FFF725BF00008E
:10051000024B1A685206FCD5586070470010014023
:1005200008B510220021144800F022FA1348FFF702
:1005300013FF1348FFF710FF124BDA6822F4005242
:10054000DA601A6922F47D521A61DA6822F4BB5229
:1005500022F01C02DA605A6922F4E06222F0010201
:100560005A6140F2A1129A60DA6842F4005242F0F5
:100570000C02DA6008BD00BF44380240097C090063
:100580000A7C09000010014010B5D0F8A440A0F882
:100590009010E26801F4D07322F4D0721343E36048
:1005A000D0F8A420536901F0010123F0010319439D
:1005B000516110BD10B5EFF31184802383F31188CE
:1005C000FFF7E2FFE4B284F3118810BD10B5EFF33A
:1005D0001184802383F3118849B1D0F8A420D36813
:1005E000526903F4D07302F0010213430B8000211F
:1005F000FFF7CAFFE4B284F3118810BD6FF0180052
:100600007047C36FD3F8A4205068B3F8922040EA33
:1006100002420A600022A3F89220C0B2704710B5CF
:100620000B46C06FEFF31184802282F31188B0F87B
:1006300090103BB141F02001FFF7BCFFE4B284F31E
:10064000118810BD21F4907121F00101F4E7C36F0E
:10065000D3F8A4301868C0F340107047C36FD3F8C4
:10066000A4305960704710B5C06FEFF31184802338
:1006700083F31188B0F8903041B143F0800189B222
:10068000FFF798FFE4B284F3118810BD23F08001D6
:10069000F5E7C36FD3F8A4301868C0F3C0107047F3
:1006A00010B5C46F94F89C0000F0E6FA002294F8AC
:1006B0009C001146BDE8104002F08CBE38B5C56FF5
:1006C000064995F89C002A4602F084FE044618B9B3
:1006D00095F89C0000F0E2FA204638BDE1060008DB
:1006E00038B514464FF48075D4F8A42013689BB233
:1006F0009906A4F8923019D5B4F89010880615D54B
:10070000204601F03EF90123B4F89220110607D5E6
:10071000B4F89020120603D5204601F0C8F8012352
:10072000013D01D0002BDFD1002038BD13F48773C9
:100730001CBF53680023E7E738B5C46F474BD4F8B4
:10074000A4209A42054604D145481022002100F019
:100750000FF9D4F8A80008B1FFF7FEFDD4F8AC00FB
:1007600008B1FFF7F9FDD4F8A42094F8B01013698C
:10077000002963D023F4605394F8971009B143F42F
:1007800000531361D4F8A420D36823F4BE73D3605C
:10079000D4F8A420536923F4E06323F001035361E8
:1007A000E96FD1F89830D1F8A4005D08D1F8A030F5
:1007B000B3FBF5F35D09C26843D11D0903F00F03D4
:1007C000013342F400425B08C260D1F8A40043EA5E
:1007D0000513836022F4B05391F89520012A37D194
:1007E00043F4C06391F89600092802D0082802D18A
:1007F0000AB143F48053D1F8A420D360D1F8A420E7
:1008000091F89700136923F4405308B143F400535F
:100810001361D1F8A420536923F440735361D4F8D1
:10082000A420D36843F4005343F00C03D3600020AA
:100830000123A4F8900084F8943038BD23F47D534C
:100840009AE703F01F0301335B0822F40042BBE781
:10085000022A08BF43F48063C4E700BF00100140D0
:100860004438024070B5C46F0546002684F8946091
:1008700031462046FFF7AAFEEB6FD3F8A4200E4BBB
:100880009A4204D10D483246102100F071F8D4F894
:10089000A420D36823F4005323F00C03D360D4F8CE
:1008A000A80008B1FFF730FED4F8AC0018B1BDE8DD
:1008B0007040FFF729BE70BD00100140443802406F
:1008C00038B5084D002455F8040B10B10021FFF78E
:1008D0007DFE0134062CF6D1BDE838400248FFF712
:1008E0002BBF00BFC0FC0008000000207FB51149ED
:1008F0001148124D00F010FE0E49114800F00CFE98
:1009000010491022684602F094F90024012355F89A
:10091000041B49B18A783AB95E1C684630338DF8B9
:10092000093000F0F9FD33460134062CEFD104B054
:1009300070BD00BF000000209CFC0008C0FC000847
:10094000A9FC0008B4FC000837B5084D0DF10601FC
:1009500004462846FFF73AFEE0B2FFF7D9FDBDF89E
:1009600006102846FFF726FE03B030BD0000002029
:1009700010B5EFF31184802383F31188036823EA11
:1009800001010A430260E3B283F3118810BDEFF363
:100990000580EFF3148C1EF0040F02D0EFF30981F1
:1009A00007E0EFF30881A1F1300282F30888BFF37A
:1009B0006F8F0A4602F12002EFF3118321E9FC5FF9
:1009C0008B4600F02BF8B0E8FC5F1EF0040F0CBF64
:1009D00080F3088880F3098883F311888CF31488E6
:1009E0007047000010B5EFF30584204600F068F969
:1009F0000021204602F010FD064B1A68064B1B68CA
:100A00009A4205D0BDE8104000210E2000F040B809
:100A100010BD00BF680E0020600E0020F8B51A4E11
:100A20000B28376804460D4602D10B6B012B01D011
:100A3000C7F8A450042005F09FFA204600F040F9C2
:100A40000E2C1BD1BB6F13B1384600F041F8EFF309
:100A50001183802383F311880C4B30681C68214676
:100A600003F0BEF804203460D4F8A44005F092FAF4
:100A700033680022C3F8A4202046F8BD294620464A
:100A800002F0CAFCE8E700BF680E0020600E0020FC
:100A900082B00F28019106DD4FF0E0231038C3F833
:100AA000000F02B070470E280AD00F280BD0022882
:100AB000F7D14FF000420548002102B0FFF758BFC0
:100AC0004FF08052F7E74FF08062F4E704ED00E06A
:100AD00010B50446EFF305836BB1174B1B68EFF3BA
:100AE0000582A34209D10E2A07D0BDE8104000219B
:100AF0000E20FFF7CDBF114BF0E7D4F8A410C4F8D7
:100B0000A010A1F150005022C4F8A40002F0B9F8DE
:100B1000D4F8A43003F150021A60D4F8A430084A83
:100B20009A64D4F8A43080225A60D4F8A4304FF0EC
:100B30008072DA6410BD00BF680E0020600E0020D5
:100B4000450B000870B5114B05201C6805F014FA20
:100B50000025802685F3118862B6A36F204698474A
:100B6000EFF3118386F31188E36F13B1636C5B06B7
:100B7000F0D50023A367052005F00CFAD4F8A030C7
:100B8000C4F8A430012000DF70BD00BF600E00205B
:100B90000F2810B510DD1038441103EB840303F166
:100BA000604303F561430B6000F01F00012303FA6B
:100BB00000F01060002010BD0D4B0B60042803D125
:100BC0004FF480331360F5E7052802D14FF400336A
:100BD000F8E7062802D14FF48023F3E70F2803D16A
:100BE000044B0B600123EDE74FF0FF30E3E700BF5C
:100BF00024ED00E010E000E008B54FF0E0234FF0F6
:100C0000FF32C3F88021C3F88421C3F88821164A33
:100C1000C3F8082D4FF08032C3F8182DC3F81C2DEF
:100C2000C3F8202D5B6811490133DB00013B18D26A
:100C30000F4900220B2002F0CDFB0E4900220320B9
:100C400002F0C8FB4FF0E022D2F81C3D23F07F43B6
:100C500043F0E043C2F81C3D002383F3118862B6E1
:100C600008BD41F8042BE1E70000000800E400E0C3
:100C7000F10C0008C50C000813B5802301AA6946D1
:100C80000446FFF785FF38B9DDE900310F2CD7BFE7
:100C90001A6819608A431A6002B010BD13B50023A8
:100CA00001AA69460446FFF773FF38B9DDE9003150
:100CB0000F2CD7BF1A6819600A431A6002B010BD22
:100CC0007047000008B54FF0E0220B46D2F82C1D0B
:100CD000D2F8282DEFF31182802282F311880021AF
:100CE0000846024A02F0B0FC002008BD14FD0008CE
:100CF00000207047F8B506460C46154605B9F8BD04
:100D0000B36F30469B6A98470028F9D0B36F9F6B4A
:100D100047B12A4621463046B847031EEEDD1C4443
:100D2000ED1AEBE71B6A14F8011B30469847013DAA
:100D3000E4E72DE9F84304460E4617464FF08008D5
:100D4000B4F85030B4F95420B4F852001BB2013357
:100D50009A42D8BF002300B298420AD0B4F850207B
:100D6000A16D12B21BB28E540020A4F85030BDE821
:100D7000F88317B3EFF3118988F31188B4F8523070
:100D80001BB2834217D1A36F01215B6A20469847AB
:100D900004F1100001F0D0FBA36F05465B6A00214F
:100DA000204698475FFA89F989F31188002DC7DA40
:100DB0006FF00300DBE70025F4E76FF00A00D6E7E9
:100DC0002DE9F041C3681D6A05F13006304601F097
:100DD000B3FB041E1ADB2B78013313F0FF072FD06F
:100DE000012F2BD1EFF31188802383F31188AB7887
:100DF0005FFA88F86BB9AB6F28461B689847041EEA
:100E000007DA88F31188304601F0DCFB2046BDE8A4
:100E1000F081AB6F28469B689847041E07DAAB78D1
:100E2000002BEED1AB6F28465B689847E9E7AB6FC4
:100E300001219B692846984788F311882F70E2E7C3
:100E40006FF01704DFE770B5046A04F13005284637
:100E500001F072FB00281DDB2678E6B9284601F078
:100E6000B1FB04F1400002F073FF04F15C0002F0FA
:100E70006FFF284602F06CFF04F1100002F068FFDB
:100E800004F1200002F064FFA36F1B6B4BB12046FE
:100E90009847002070BD0123E370284601F092FBC3
:100EA000F7E71846F6E700002DE9F04FC36887B072
:100EB0001D6A07460E46EFF30583BBB1EFF31183BE
:100EC0000293802383F311884FF000087368DFF8E2
:100ED00084B101934446019B434525DC9DF80830CD
:100EE00083F31188204607B0BDE8F08F02F014FEAE
:100EF00080460028E2D105F1400A5046D6F8089015
:100F000001F01AFB041EEDDBAB6F3F685B6A4146E4
:100F10002846984787F04007C7F38017C846B8F1BE
:100F2000000F4BD14C465FE0336803EBC8025768B3
:100F300077B3A86853F838A010F0010019D000204A
:100F400081461AF809200D2A4B460AEB000109F1E7
:100F5000010920D1AA68120709D51A1A2846FFF7F5
:100F6000C9FE284601225946FFF7C4FE48464F45B0
:100F7000E7D13A1A0AEB00012846FFF7BBFE002F23
:100F80003B4662DB6FF000431B1BBB425BDB3C4418
:100F900008F101089FE70A2AE9D1AA6812F0240F94
:100FA000E5D01A1A28460393FFF7A4FE28462A49DB
:100FB0000122FFF79FFE039B1846D8E7012300217B
:100FC0000DF11702304600F047FFAB68D9071CD47B
:100FD0009DF817103A462846FFF7ABFE041E2BDAA1
:100FE000C14501D9A9EB0804B5F85020B5F8523035
:100FF00012B21BB29A4204D0AB6F01215B6A284641
:101000009847504601F0DEFA6CE79DF817200D2A4C
:101010000FD11A07DCD50A228DF8172013F0240F00
:10102000D6D03A460D212846FFF783FE041ECFDABC
:10103000D6E70A2ACCD1F1E70121304600F0C6FEFE
:1010400008F1FF386BE76FF04A03002C08BF1C461D
:1010500044E700BFC10601081AFD00082DE9F04F62
:10106000C3681C6A04F15C0985B0074648460E4611
:1010700001F062FA051EC0F2C080B368DFF834B236
:1010800000934FF000084546009B9D4280F29F80F0
:10109000B4F86E30B4F86C2019B212B28A4200F083
:1010A000B380626F0133525CB4F970108DF80F2079
:1010B0001BB29942D8BF0023A4F86E30636813F4C2
:1010C000E07F10D00A2A07D159060CD50D228DF8E1
:1010D0000F201A06D8D406E00D2A04D1DA05F8D577
:1010E0000A238DF80F30E3689B0713D429460123A8
:1010F0000DF10F02304600F08FFEE368190705F18D
:1011000001055BD59DF80FA0BAF11B0F2AD1022370
:101110006370B9E79DF80F30082B01D07F2BE5D124
:10112000002DB1DD0123294630465A4600F074FEF9
:10113000E368180705F1FF35A6D5012208212046EE
:10114000FFF7F7FD012220212046FFF7F2FD0122E3
:1011500008212046FFF7EDFDA36F5B6A01212046C1
:10116000984791E76278022A12D1BAF15B0F11D049
:101170004FF000036370504601F067F968B1BAF1AF
:101180000A0F1BD101220D212046FFF7D2FD07E0F7
:10119000002AF0D0013A627076E7BAF10A0FF1D076
:1011A00001229DF80F102046FFF7C3FDE3689A0760
:1011B00027D5A36F01215B6A20469847E3689B0708
:1011C0007FF562AF9DF80F300A2B7FF45DAFB8F169
:1011D000000F04D0A36F01215B6A20469847A36FDC
:1011E00001219B6920469847484601F0EBF9002D04
:1011F00003DB2946304600F0E9FD284605B0BDE88E
:10120000F08F4FF00108D9E7EFF3118A802383F3C1
:101210001188A26F0021926920469047B4F86C10A3
:10122000B4F86E2009B212B291425FFA8AFA3BD149
:10123000A26F0121926920469047B4F86C10B4F86F
:101240006E2009B212B2914202D08AF311881BE7D4
:10125000002D05DDE268900702D48AF31188B6E715
:10126000FA6822B98AF311886FF04C05AFE73A6843
:10127000510604D58AF311886FF00A05A7E748469E
:1012800001F0A0F904F1200001F056F90190484660
:1012900001F052F98AF31188019A002ABFF6F4AEE0
:1012A000002D08BF154692E78AF31188A36F9B694A
:1012B00054E700BF4CFD00082DE9F04106460C46FE
:1012C00017469846EFF31185802383F3118802F0C7
:1012D000E1FB04F120004246391B06EB800000F0E0
:1012E0003DFDEDB202F0E4FB85F31188BDE8F0812D
:1012F0002DE9F041C3680D461C6AEFF3118380218C
:1013000081F31188002A4FD06218002752F8041B7D
:101310003E46013700293AD106F12002DBB244F8FB
:10132000225004EB82026A6183F3118804F14008C1
:10133000404601F001F9B4F85030B4F95420B4F843
:1013400052501BB201339A42D8BF002340462DB2FF
:1013500004F15C089D4214BF0425002501F032F918
:10136000404601F0E9F8B4F86C20B4F86E3012B2DF
:101370001BB29A4215D1404601F024F92B463A4659
:1013800031462046FFF798FF0020BDE8F081042F8A
:10139000BCD100226A61DBB283F311886FF00F00C9
:1013A000F3E745F00105E6E768690028EDD0026043
:1013B000DBB26A6183F31188E6E700002DE9F041B2
:1013C000836F1B690646884615462BB300F140071C
:1013D000384601F0B1F8041E16DBB36F00221B691A
:1013E00040F20F1140469847041E0DDB95B14FF4B3
:1013F0007A70684302F06EFCB36F00221B694FF4F1
:101400008871404698470446384601F0DBF820468C
:10141000BDE8F0810248EDE76FF01804F7E700BF80
:10142000801A060013B501A9044601F078F820B12E
:1014300002B010BD204601F0C5F8019B5A1C002BDC
:101440000192F7DDF4E72DE9F74F00F1400904467A
:1014500048461646984601F06FF8B0F1000B3ADBAB
:1014600001F029FE05460F46EFF311830193802317
:1014700083F311884FF0000B04F1100AB4F85010F8
:10148000B4F8522009B212B291421AD0A36F0121CE
:101490005B6A2046984701F00EFE401B61EB070196
:1014A000B04271EB08031ADA311A504602F004FD1B
:1014B0008346A26F0021526A20469047BBF1000F7D
:1014C000DCDA9DF804A08AF31188BBF1000F09DA79
:1014D000484601F077F8584603B0BDE8F08F6FF04A
:1014E0006D0BE6E7A26F2046D26A90470028EFD145
:1014F0004FF47A7002F0EEFB01F0DDFD401B61EB72
:101500000701B04271EB0803ECDB484601F05AF8E2
:101510006FF06D0BDFE7000070B58B7805460C4669
:101520005BB1CB6843F00B03CB6005238B604B684A
:1015300043F480734B6000234B7004F1400000F0D3
:1015400097FF04F15C0000F093FF04F1300000F01D
:101550008FFF0022114604F1100000F0CBFF0022A3
:10156000114604F1200000F0C5FF23462846034938
:10157000BDE870404FF4DB7200F0AFBA1CFD00080C
:1015800010B50123044604220021FFF795FE04F163
:101590002000BDE81040FFF745BF10B50423044606
:1015A0001A460021FFF788FE04F11000BDE8104044
:1015B000FFF738BF2DE9F041C3681C6AD4F8788082
:1015C000D8F8103088B007460E4615462BBBB6F546
:1015D0008B7F14DAB6F5867F40F3DD806FF4867377
:1015E000F318082B00F2D780DFE813F0CC00D2000C
:1015F000D500D500D500D500D500A400BE0040F22E
:1016000007339E425AD0B6F5427F73D040F206337C
:101610009E422FD06FF01800B1E0B1F5817F1CD150
:10162000002A00F0CA8020220021684601F037FB22
:10163000D8F810306A4640F2011138469847002821
:10164000C0F2B280EB69079A9A4206D1AA68029B5F
:10165000534033F4486300F0A780A36F2A461B6908
:1016600031463846984710F1190FB0D0002800F0E5
:10167000948084E0EFF31181802383F31188B4F820
:101680006E20B4F86C3012B21BB29A420CDCB4F883
:101690006C30B4F86E201BB212B29B1ACAB282F33D
:1016A00011882B6000206AE0B4F86E20B4F86C005A
:1016B000B4F9703012B200B2121AEEE7EFF31181F2
:1016C000802383F31188B4F85220B4F8503012B25A
:1016D0001BB29A4205DCB4F85030B4F852201BB269
:1016E000DAE7B4F85220B4F85000B4F9543012B22A
:1016F00000B2E1E7EFF31181802383F31188B4F89E
:101700005020B4F8523012B21BB29A4208DAB4F840
:101710005230B4F850201BB212B29B1A013BBDE705
:10172000B4F85020B4F85200B4F9543012B200B2F8
:10173000121AF2E7EFF31186802383F3118835F054
:10174000020304BFB4F86C30A4F86E30013D012DE3
:1017500006D8B4F85030A4F852302046FFF71DFFE9
:10176000F6B286F311889DE74FF47A720023204683
:10177000FFF769FE18B110F1190F3FF44BAF08B035
:10178000BDE8F0812A4639462046FFF717FEF1E70B
:1017900064226A43F7E76FF0180040F201139E429B
:1017A0000AD0B6F5817FEAD13DB12B6863606B68E2
:1017B000A360EB68E36075E715B96FF01500DEE72D
:1017C00063682B60A3686B60E368EB606AE710B541
:1017D00000210446103002F01FFC002104F120001B
:1017E00002F01AFC012104F1400002F015FC04F1A2
:1017F0005C000121BDE8104002F00EBC70B5C3686A
:101800001C6A04F130050646284600F095FE237850
:10181000012B05D9013B2370284600F0D3FE44E09C
:10182000A36F002121709B692046984733685B06AF
:1018300005D44FF4C87200232046FFF704FEEFF3EF
:101840001186802383F31188A36F2046DB689847B5
:10185000A3781BB9A36F20465B689847F6B286F35E
:1018600011882046FFF78CFE2046FFF7B0FFE37893
:101870002846002BD1D000F0A5FE04F1400002F074
:1018800067FA04F15C0002F063FA284602F060FA9D
:1018900004F1100002F05CFA04F1200002F058FAA2
:1018A000A36F1B6B0BB120469847002070BDF8B5A5
:1018B000002504462E46B4F85020B4F8523012B237
:1018C0001BB29A4220D1B4F85020B4F8523012B270
:1018D0001BB29A4204D1A36F00215B6A204698474D
:1018E000002D4DD02046BDE8F840FFF756BE1A6ADD
:1018F000B4F8523018B201331BB2A4F85230095C6C
:1019000020469047013530E0A36F20469B6A9847F8
:101910000028D8D0A36FA16D9F6B002FE7D0B4F83B
:101920005220B4F8503012B21BB29A42ADBFB4F894
:101930005220B4F85020B4F8523013B2AEBFB4F90C
:1019400054201BB212B2D21AB4F85230204601FA17
:1019500083F1B847002809DDB4F8523013FA80F358
:101960001BB2A4F8523015FA80F5ADB2B4F852307B
:10197000B4F954201BB29A42D8BFA4F852609AE737
:10198000F8BDF7B504460025A36F2046DB699847EC
:10199000E8B9B4F86C20B4F86E3012B21BB29A42B7
:1019A000BDBFB4F86E20B4F87030B4F86C10B4F861
:1019B0006C30ACBFB4F86E205B189B1A9BB2002B46
:1019C00067D0204603B0BDE8F040FFF7D9BDB4F8BA
:1019D0006C30B4F97020A16F1BB201339342B8BFD1
:1019E000B4F86C604B6BB4F86E70BABF36B20136A7
:1019F00000263FB2002B38D0B74230D0B4F86E008A
:101A0000B4F86C1000B209B2884205DDB4F86E205B
:101A1000B4F86C10013A07E0B4F86E1009B292B253
:101A20000029F5D0B4F86C10B4F86C00521A616F4C
:101A300092B201FA80F1204698470028A4DDB4F85C
:101A40006C30B4F97020184400B2A4F86C00B4F8FB
:101A50006C301BB29A4297DCA4F86C5094E70122D8
:101A60000DF10301204698478EE74B69002B8BD080
:101A700001A920469847B742C0B28DF8030083D031
:101A8000B4F86C30626F1BB236B2D054A4F86C60FC
:101A90007AE703B0F0BDF7B5044617460E461D467B
:101AA00000F024F8204601AA394600F08BF8041E05
:101AB00010DB019A089B108A566120F00F0040F05D
:101AC000010010821562D36100F01CF8002420464A
:101AD00003B0F0BD00F016F8F9E713B50024009448
:101AE000FFF7D9FF02B010BD00F060B8014802F066
:101AF00052BB00BFB4000020014802F003BB00BF8E
:101B0000B4000020014802F071BB00BFB400002007
:101B1000014802F021BB00BFB4000020038A024646
:101B200013F00F0019D053699BB1CA0703D55A6A45
:101B30000AB99A6832B111F002000ED0986A58B909
:101B4000DA6852B95B69002B14BF00206FF00C00FB
:101B500070476FF0050070470020704710B50346CE
:101B60000446184613F8012B2AB9001B283001F04F
:101B7000C7F818B910BD2F2AF3D1F6E70A4A13881F
:101B80000383591C01231180013CC36000F124032D
:101B900014F8012F12B900221A70EBE72F2AFAD09D
:101BA00003F8012BF4E700BF780D002008B50348C7
:101BB000FFF7D4FF024B186008BD00BFC01001083A
:101BC0007C0D00202DE9F0410023136016460278B9
:101BD00088B0002A45D0CDE9010301A8CDE903333F
:101BE000CDE905338DF81C3000F050F8002835DAC7
:101BF000DDE90354019F384600F036F8037880464B
:101C00003846D3B1FFF7AAFF48B96FF00B04069826
:101C100008B101F059F8204608B0BDE8F0813DB1A7
:101C20006B68C0E900436860474604460025E2E768
:101C3000A368C0E90043A060F6E7FFF78FFF002824
:101C4000E3D035B16B68C0E90043686030600024C0
:101C5000DDE7A368C0E90043A060F7E76FF0100478
:101C6000D5E76FF01504D6E70378024601300BB1D3
:101C70002F2BF9D113782F2B104602F10102F9D046
:101C80002E2B02D143782F2BEED07047F8B5036886
:101C90001B782F2B044611D005462C4801F04CFA36
:101CA00055F8143B2A4A2B49002818BF02462846FB
:101CB00000F0AAFC002842DB63692360264B206801
:101CC000196803782F2B3DD100252E4649B90A46C5
:101CD0006FF00103C4E90001C4E9026522611846FE
:101CE000F8BD01F12307431E17F801CF13F8012FA8
:101CF000BCF1000F0FD10AB12F2A17D1FFF7B4FFA3
:101D00000378BBB10B8A03F00F03032B14D08B684D
:101D10000D4600210BE022B12F2A02D0944505D3B5
:101D2000E2D900216FF001030A46D3E74B680E4663
:101D30001946CBE70246CDE702460023CAE76FF01B
:101D40000B03CCE76FF01503C9E700BF921401083D
:101D50000C0301084DFD00087C0D0020F8B5064677
:101D60000F4614460025BD4200DA04B9F8BD56F806
:101D7000250098B14268816842F0180323400B4364
:101D800013F0180F18BF23F004038360836802F474
:101D90008032134302D0036903B198470135E2E76B
:101DA00070B5D0E900240023184604326FF00045D6
:101DB000A34200DB70BD52F833102E1A8E4202D3BC
:101DC00008440133F4E76FF01500F3E770B5D0E98C
:101DD0000253D0E900426D1A8560002A04DD65686F
:101DE000EE1A8E4204D90B44C0E90042C36070BDB4
:101DF0005B1B19440834013A0023EEE738B500258F
:101E0000C0E900128560C5600446FFF7C9FF0028DD
:101E1000A4BFA060284638BDF8B50468C06817465E
:101E20001E4608446368834202D308341EB9F8BDD5
:101E3000C01A0834F6E754F8045C54F8083C2D1A2C
:101E4000B54228BF354639462A46184400F019FFE6
:101E5000761B2F440020E8E7F8B51F46C3680468E6
:101E60001646194463688B4202D308341FB9F8BD83
:101E7000C91A0834F6E754F8045C54F8083C6D1AA3
:101E8000BD4228BF3D46194430462A4600F0F9FEBF
:101E90007F1B2E440021E8E72DE9F04790F80180F0
:101EA000884504460F4602D30020BDE8F08708F1BC
:101EB0000103202BC24648DC880000F00DFF0546D8
:101EC00060B14646402000F01BFF45F8260068B987
:101ED000013EB04505DD284600F0F6FE6FF0160025
:101EE000E3E755F8260000F0EFFEF1E70136B742D0
:101EF000E8D8EFF31189802383F311886278424593
:101F00005FFA89F910D0BA420ED389F31188B2452D
:101F100003DB284600F0D8FEC6E755F82A0000F09B
:101F2000D3FE0AF1010AF2E7616819B1920028466E
:101F300000F0A7FE60686770656089F3118800286B
:101F4000B2D00834A042E5D1AEE76FF01700ACE79D
:101F500070B5049DEFF31184802686F311884068E4
:101F600050F8211001EBC20051F832201A605AB12A
:101F7000BFF35B8F043252E8003F013342E8003187
:101F80000029F8D1BFF35B8FE3B283F3118805B169
:101F9000286070BD00F10803436000F10C0383600A
:101FA0004FF480730380704713B5144690B1002935
:101FB0000CDB4278B1EBC20F08DA009301F00702A4
:101FC0002346C910FFF7C4FF236833B96FF0080038
:101FD00002B010BD6FF01500FAE70020F8E7002A04
:101FE0002DE9F84315469846B8BFD51D534203F076
:101FF000070302F0070406460F464FEAE50558BFFF
:102000005C42EFF311824FF08009D2B289F311885C
:102010007378AB420CDC82F31188691C3046FFF701
:102020003BFF002822DBEFF31182D2B289F3118843
:10203000736853F8251051F8343001EBC400BBB974
:1020400008F10403BFF35B8F53E8001F013143E83D
:102050000016002EF8D1BFF35B8FC7F38027C0F8BE
:102060000080077182F3118804EBC500BDE8F88396
:102070000134082CDFD101350024C9E7142000F019
:102080003FBE00F021BE70B50D461646044601F075
:10209000AFFC33462A462146BDE87040FFF784BFB7
:1020A0000430BFF35B8F50E8003F013340E800325B
:1020B000002AF8D1BFF35B8F704738B5044610B9DA
:1020C0000025284638BD031DBFF35B8F53E8002F62
:1020D000511E43E80015002DF8D1BFF35B8F012A94
:1020E000EED100F055F90546204600F0EDFDE8E799
:1020F0002DE9F043836885B005463BB10024D0F854
:10210000308093F82D72A146A74202DC05B0BDE8ED
:10211000F0830026404601F075FC0028F6D0D0F888
:1021200008C0BCF1000FF1D08542EFD10CF50B7067
:10213000CDF8009003AB32462146FFF709FF039824
:1021400020B100F057F90398FFF7B7FF0136082ECA
:10215000E0D10134D8E7F8B506461C461046EFF347
:102160001185802383F3118800290B46B8BFCB1D4E
:102170007668DB104A4256F8233002F0070201F07D
:10218000070158BF514203EBC10753F8316043F8D0
:102190003100C4F38024FFF783FF3C71EBB283F37B
:1021A00011883046BDE8F840FFF787BF2DE9F04FB2
:1021B00087B0074688461646039300247B78A342DF
:1021C00002DC4FF000091EE04FEAC40B002505AB0E
:1021D0000093384604AB2A462146FFF7B9FE04981F
:1021E00005EB0B0A38B3039B13B1059B1B79BBB9F5
:1021F0006EB9611C4046FFF74FFEB0F1000908DAE6
:102200000498FFF75AFF484607B0BDE8F08F002258
:1022100008E0049A002351464046FFF79CFF07E080
:102220003EB101225146304602F065FB0028E0D164
:102230000498FFF742FF0135082DC8D10134BDE7EE
:102240009142F7B505460E4614461F4621D0002A96
:1022500022DB4378B2EBC30F09DA01AB6A463146A1
:102260002846FFF7A1FE002808DA03B0F0BDD11020
:102270000131FFF711FE0028EFDAF6E7009A3B463E
:1022800021462846FFF767FF0098FFF716FF204614
:10229000EBE76FF01500E8E76FF00800E5E7914223
:1022A00013B50C460CD1002201A92046FFF7EBFE26
:1022B000002803DB0198FFF700FF204602B010BDA5
:1022C000002302B0BDE81040FFF7BABF07B501AB6D
:1022D0006A46FFF769FE002811DB019AEFF31183CC
:1022E000802181F31188106808B100211160DBB2F0
:1022F00083F31188FFF7E1FE0098FFF7DEFE03B0DD
:102300005DF804FBF8B545780446013D07D26068E6
:102310000834A04213D0BDE8F84000F0D5BCEF006F
:102320000726F1192046FFF7D1FF013EF9D2002D13
:10233000EBD0636853F8250000F0C6FCE5E7F8BD74
:102340000148002101F07EBBF120000858B1BFF325
:102350005B8F0C3050E8003F013340E80032002A28
:10236000F8D1BFF35B8F7047034680B1BFF35B8F3B
:102370000C3353E8002F511E43E8001CBCF1000F42
:10238000F7D1BFF35B8F012A01DC00F04FB8704733
:1023900070B5C56806466DB16C6924B1646814B146
:1023A000A047041E02DB2846FFF7DEFF0023F36090
:1023B000204670BD2C46FBE710B5054B0446186857
:1023C00001F010FB2146BDE81040FFF77FBF00BFC2
:1023D000600E002010B5FFF7EFFF041E08DAEFF3E0
:1023E00005831BB900F03AF8644204604FF0FF34F3
:1023F000204610BD10B5C268AAB15369128A02F016
:102400000F02032A05D173B1DB6A63B1BDE8104046
:10241000184743B15B6933B1002240F20D51984730
:1024200000EAE07010BD6FF01500FBE710B5044640
:1024300050B14068FFF7FAFFA068FFF7F7FF2046AA
:10244000BDE8104000F040BC10BD1F2804DDA0F125
:102450007F035842584170470120704708B500F08B
:1024600026FC08B1083008BD0048FCE7800D0020BC
:1024700038B5064A0021054600F03CF8041E03DB8F
:102480000421284600F03DF8204638BDFEFFFF7FBE
:1024900010B5074A036823F0004432EA030308BF7B
:1024A0004FF0FF3402F04CFA031B5842584110BD64
:1024B000FEFFFF7F10B50446FFF7EAFF28B920466C
:1024C00000F03AF8002801DA10BD0020236901333A
:1024D0002361F9E710B50369013B044603613BB989
:1024E00000F070F8002802DA23690133236110BD7F
:1024F0000020FCE7034602600020C3E902001871D7
:102500007047034611F0030007D00138022834BF9A
:102510006FF089006FF0150070471971704702461F
:1025200038B131B1037913F0040002D113680B60A4
:1025300070476FF015007047F8B506790F4F0446E5
:1025400006F0040625681EB9002D11DD681E03E0A3
:10255000BD420DD102F0F4F954E8003FAB4204D182
:1025600044E80002BFF35B8F002AEBD10020F8BDE6
:102570002046BDE8F84001F005BC00BFFEFFFF7F2C
:10258000F8B506790E4F044606F0040625681EB914
:10259000002D11DD681E03E0BD420DD102F0D0F91F
:1025A00054E8003FAB4204D144E80002BFF35B8F24
:1025B000002AEBD10020F8BD6FF00A00FBE700BF56
:1025C000FEFFFF7F30B402790E4C02F00402036874
:1025D0001AB9002B12DB591C02E0002B0EDB21463E
:1025E000BFF35B8F50E8005F9D4204BF40E8001CD2
:1025F000BCF1000FEBD1002030BC704730BC01F0C3
:10260000A3BC00BFFEFFFF7F0EB403B503AA52F8C0
:10261000041B019200F02FF802B05DF804EB03B048
:102620007047F0B58DB014460D46074602A80192DA
:1026300000F062F82246294602A800F0CBFA029E7A
:102640000136304600F048FB044670B10146324680
:1026500006A800F033F8019A294606A800F0BAFA55
:10266000002805DA204600F02FFB4FF0FF3000E095
:102670003C600DB0F0BDFFF7D4BF38B5054600682B
:102680006B691C1A944228BF144654B12B69224628
:10269000184400F0F6FA2B682A69234400212B60C5
:1026A000D154204638BD07B501228DF807100DF131
:1026B0000701FFF7E2FF03B05DF804FB064B436040
:1026C000064B8360064BC360013A0023036001613F
:1026D00042610B70704700BFA72600087B260008E8
:1026E000192700080368013303607047034610464A
:1026F0001A6802441A607047044B4360044B8360BD
:10270000044BC36000230360704700BFE526000848
:10271000ED26000819270008002070472DE9F04F2A
:1027200089B00646129D002493F800A0BAF1000F6C
:1027300000F04182BAF1250F0AD00133009373688B
:102740005146304698470134A846009B4546EBE782
:1027500093F801A09A1CBAF1250F0092EFD04FF028
:102760000009CB464F460A223F2F50D8BAF12B0F13
:1027700042D013D8BAF1200F40D0BAF1230F43D082
:10278000AAF13003DBB2092B53D8F8054EBF02FB88
:10279000093902FB0B3B47F0800707E0BAF12D0F28
:1027A0002FD0BAF1300FEBD147F00107009B13F89F
:1027B00001AB0093BAF1000FD6D10AF0DF03A3F109
:1027C0004502022A74D9BAF1630F00F08D80532BB1
:1027D00040F0A180A846AD4B58F8045B002D08BF1F
:1027E0001D4617F4807F14BF49464FF0FF3128463D
:1027F00000F03BFA814664E047F0020747F0040727
:10280000D4E747F00807D1E747F01007CEE7B7F560
:10281000007FB5D3BAF17A0F2CD0BAF1740F29D05A
:10282000BAF16A0F22D127F48067BFB247F420675C
:10283000BCE7BAF12A0F10D1F80555F8043B02D5D0
:1028400023EAE379B2E7002BA7BF47F080079B4656
:10285000C3F1000B47F08807A8E7BAF12E0FD9D1D2
:10286000F80500F1A88147F480779FE70AF0DF03BD
:102870004C2B09D1BB054CBF47F4006747F40077E8
:1028800027F48067BFB291E7BAF1680F08D17805E5
:102890004CBF47F4006747F4806727F40077F1E7FF
:1028A000BAF1700F04BF27F4206747F4007784E77C
:1028B00005F1070828F00708754D08F108084FF0E2
:1028C00007093A0724D5B3684A462946304698474F
:1028D000D9454C443FF639AFABEB090B5F46002FAF
:1028E00040F063815C4430E7A8464FF0010958F896
:1028F000043B8DF8083002ADE3E7736820213046D1
:1029000098470BF1FF3BD945A7EB0B04F5D3DAE76A
:1029100004EB0B07F7E7BAF1640F07F4206302D06A
:10292000BAF1690F73D1B3F5206F5ED1073525F089
:102930000705A846696858F8080B27F48055002950
:1029400025F0100505DA404245F4805561EB410160
:10295000ADB2EA0506D5B9F1000F03D150EA010383
:1029600000F0B38002AF0A233A4600F035F9C71BE6
:10297000FFB2EB05019740F1AA8025F0010A4F450F
:102980001FFA8AFA80F2A68044F210032B40102B23
:102990005FFA89F203D125F011051FFA85FA1AF0C2
:1029A000100F00F0A18007F120036B4413F8193CCD
:1029B000302B40F091802AF4C04A2AF0100A1FFA06
:1029C0008AFA1AF0080F40F09F801AF0010F00F009
:1029D000B9805A4580F2B880ABEB020505EB0709D8
:1029E0005FFA8BF52D1BEDB28AE0A846BB0558F8BF
:1029F000040B4FEAE071A0D47D059ED5390555BF83
:102A000040F3C03140F3C01100B240B295E7B3F5D6
:102A1000206F1AD1073525F00705A846696858F8D0
:102A2000080B27F00605BAF1580FADB23AD0AAF15B
:102A30006F03DAB2092A3CD8092B3AD8DFE803F051
:102A4000432A393939391739392C17F40071286874
:102A500005F1040801D00021E3E717F48063FAD000
:102A600017F4006301D180B2F5E7C0B2D9E727F0CF
:102A70001605ADB20A23EA0505D5B9F1000F02D15A
:102A800050EA010221D002AF6EE700BF5BFD0008F3
:102A900053FD000845F01005EB0601D545F48045CF
:102AA0001023E8E7FF0601D545F4C0454FF4047351
:102AB000E1E77368304625219847736851463046F0
:102AC0000234984741E60823D5E74F4651E73A4696
:102AD000AA4664E73A4662E71AF4804F01D1551CD2
:102AE00000E0951CEAB26CE741F206031AEA030F14
:102AF0003FF467AFF3E7736820213046013498470D
:102B00002A19D2B25A45F6DB5A45B4BFABEB020BD9
:102B10004FF0000B1AF0100F23D0736830213046AD
:102B200098471AF4804F11D10134CA46BA452ADCBD
:102B3000A9EB0703B945B8BF00231C4457BB019B51
:102B40001C44CBE615464DE7B946DDE71AF4005FB5
:102B5000736804F1020414BF582178213046984765
:102B6000E3E741F206031AEA030FDED01AF0020F80
:102B700014BF2B2120211AF4805F736804F1010433
:102B800018BF2D21EAE773683021304698470AF1D3
:102B9000FF3ACBE77B1E08AA52FA83F2DFB212F8A3
:102BA000181C736830469847C8E773682021304680
:102BB0009847013F93E6204609B0BDE8F08F00BF7B
:102BC00007B5009200220B461146FFF7A7FD03B0A0
:102BD0005DF804FBFFF7F4BF2DE9F84313F4007927
:102BE0001C4618BF23F4007406460F46154618BF4E
:102BF0004FF001094FEAE478304639462246434611
:102C000003F042FA092AB4463B4606460F4609DC61
:102C10003032A44573EB080305F8012BECD22846AB
:102C2000BDE8F883B9F1000F01D03732F1E7573230
:102C3000EFE710B5034692B10A4408460446013056
:102C4000904203D100221A70204609E010F8014C8E
:102C500003F8014B002CF1D1401A013810BD084691
:102C600010F8013B002BFBD1F6E710B502460144FA
:102C70008A42134603D01C780132002CF8D1181A6E
:102C800010BD0A44914200F1FF3300D1704710B5E6
:102C900011F8014B03F8014F9142F9D110BD0244E4
:102CA0000346934200D1704703F8011BF9E71FB5B3
:102CB000002001A900F03EFF0028ACBF02980020D0
:102CC00005B05DF804FB0000024B0146186800F0F7
:102CD000B3B800BF840D002010B5084B014618683A
:102CE00000F0CEF8044630B9EFF305831BB9FFF7C7
:102CF000B5FB0C230360204610BD00BF840D0020EF
:102D000010B5084B0146186800F030F9044630B998
:102D1000EFF305831BB9FFF7A1FB0C2303602046EB
:102D200010BD00BF840D0020F8B504460D461646C0
:102D300000F028F900280DDA204600F045F9D4F813
:102D400054312B600146C4F854512046BDE8F84088
:102D500000F041B92946204600F040F91EB1204656
:102D600000F02CF9E8E755F8041C21F0030221F0EB
:102D7000010145F8041CA169A5F10803891A9818F6
:102D8000A1614168CE074ED4D0E9026C21F0030165
:102D90004718CCF808601EB1D0F80CC0C6F80CC0BB
:102DA00055F8046C0A4406F00306164345F8046C13
:102DB000425055F8041C890712D555F8081C5B1AB7
:102DC000D3E902055968A86021F0030108B1DD6864
:102DD000C5600A44596801F00301114359603A6023
:102DE000586820F00300B0F5800F3DBF0209B2FA29
:102DF00082F2C2F11F02122204EB021104EB021252
:102E00002431D26A2AB155681DB125F00305A842C4
:102E10000FD88B60C3E9022102B1D3602046BDE820
:102E2000F84000F0CBB841F00201416007469A50EB
:102E3000BFE711469268E5E711B10022FFF774BFC2
:102E40007047F8B5044600F0BFF8D4F85451002399
:102E50000146C4F85431204600F0BDF82E1E18BFBC
:102E600001260DB93046F8BD2F68294600222046BC
:102E7000FFF75AFF3D46F4E708B1FFF7E2BF70479E
:102E800070B50C460546FFF7DCFF0C2C214638BF19
:102E90000C2101F10B0626F007068E4224D32846AA
:102EA00000F070F8B6F5800F3DBF3309B3FA83F335
:102EB000C3F11F03122305EB0313DC6A24B9284670
:102EC00000F07CF8204670BD6368A26823F003031D
:102ED0009E420BD91446F1E719469B682AE05368D5
:102EE00023F00203536031E00024EBE7E1688A60DD
:102EF0000AB1E168D160981B0F2804EB0302EED9F8
:102F0000A2195060616801F003010E436660E05051
:102F1000506820F00300B0F5800F3DBF0309B3FAFD
:102F200083F3C3F11F03122305EB031105EB031316
:102F30002431DB6A2BB15E681EB126F00306B04275
:102F4000CAD88A60C2E9023103B1DA606368AA694B
:102F500023F0030313446A69AB61934288BF6B613A
:102F6000636843F0010363600834A8E738B50D4691
:102F7000FFF786FF044618B12A460021FFF78FFEAF
:102F8000204638BD38B50546EFF305843CB10268EC
:102F9000094B934314BF6FF00A00002038BD01F0C5
:102FA000CFFC002804DB2846FFF7C6FA2046F5E7E9
:102FB0006FF00200F2E700BFFEFFFF7FEFF3058333
:102FC0000BB9FFF7FFBA7047EFF31180802383F34B
:102FD0001188C0B2704781F31188704729B151F848
:102FE000041C21F00301081F7047084670470000C9
:102FF0007FB504460D46002942D0012813D100F0C8
:103000008DF800236422044602F0EEFF6FF06303A4
:1030100003FB0044C5E900011B484443AC600024A5
:10302000204604B070BD042803D1084600F046F8DD
:10303000F5E728BB684600F041F8EFF311808023E4
:1030400083F31188114A009ED2E900319B19019E39
:10305000926841EB0601029E32440D4EB24208DDF9
:1030600002F1444202F5CA02013302F5585241F11D
:103070000001C5E90031AA60C3B283F31188CFE72C
:103080006FF01504CCE700BF80969800101B00205D
:10309000FFC99A3B10B5FFF7ABFF041E09DAEFF347
:1030A00005831BB9FFF7DAF9644204604FF0FF3083
:1030B00000E0002010BD00F031B8000038B5054632
:1030C00000F02CF800236422044602F08DFF6FF01C
:1030D000630303FB0044C5E9000102484443AC60BC
:1030E00038BD00BF80969800F0B5EFF311848023BF
:1030F00083F31188074A084D136801331360D5E93B
:103100000023161841EB0307C5E90067E3B283F318
:103110001188F0BD880D0020900D002030B5044BC3
:10312000044D1A68D5E900011C689442F9D130BDFC
:10313000880D0020900D002070B5054638B3EFF3E0
:10314000058323BB184B1B689C684CB304F527769A
:103150003046FFF7AFF92946204601F015FF051E5E
:103160000ADA3046FFF7B6F9EFF30584D4B9FFF772
:1031700075F96D42056011E0D4F81C323D2153F819
:10318000250004F04AF928B93046FFF7A3F96FF09B
:103190001505E9E7441C3046FFF79CF9204670BD51
:1031A0002546E1E70024F9E7600E00202DE9F7430A
:1031B000524C534B534DA36005230026082252491D
:1031C00023752377514F524BDFF8488123624FF02C
:1031D00001090923A262216322643146A02205F17C
:1031E000080084F82C3084F83C3084F8443087F8A8
:1031F00000902660267184F80C90C4F81080C4F802
:10320000188084F8246084F83460A663FFF747FDD3
:10321000032385F84030404BA5F84890C5E90E33AC
:1032200002236B64D8F800306E602B60002B54D101
:10323000C8E90055394B1D6002233B7003F07AFA50
:1032400001A9684603F016F9DDE9000104F050FA1F
:103250004020FFF755FD324B95F844101860314B74
:10326000056010221A6027481B6801F059FF2548A5
:1032700001F077FB234803F0A1F8224801F0A6FCF7
:10328000204801F087FFAA6803231372264A002111
:1032900011603B7000F08EF803F0DAFA00F08CF861
:1032A00001F038FD01F0D6FB00F0B4FF00F05CFB4C
:1032B00003F002FA03F056F903F03DFA04233B70E1
:1032C00001F0F8FF05233B7000F052F806233B7035
:1032D00000F0EEFB03F004F9FCE75D6095F8402098
:1032E00004EBC2031B791B0745BF6B6F54F83220F8
:1032F00054F832309B181D609CE700BF6C0E002014
:10330000540E0020980D0020B40E0020500E002016
:10331000400E0020600E0020AD310008680E002035
:103320005C0E00204C0E0020480E002010B588B026
:103330000024029402F016FE03A803F060FF642349
:103340008DF80D304FF40063069302AB06490093ED
:10335000224603AB0194054801F028FB03A803F0C3
:1033600070FF204608B010BDA95F000862FD00088C
:103370001FB50C490C48012201F01EFE01F0A0FD12
:103380000A4B019300244FF40063039000930294CE
:103390002346F0220221064801F020F8204604B01E
:1033A00010BD00BF0C030108921401082D33000862
:1033B0006BFD000870470000044A0549002342F8ED
:1033C00033100133622BFAD1FDF716BCBC0E00207E
:1033D00041340008612870B505460C4614D8EFF357
:1033E0001186802383F3118819B9FDF745FC224625
:1033F000074C084840F8354000EBC500F6B2426083
:1034000086F31188002070BD6FF01500FBE700BF48
:1034100041340008BC0E0020612807D8064A52F843
:10342000303033B102EBC002526818470022034B20
:10343000FBE71A46FBE700BFBC0E00204134000842
:1034400008B5EFF31183802383F311880021024A2A
:10345000084603F09DFD00BF14FD00082DE9F04370
:10346000DFF89C80DFF89C9089B004460D46AC42A2
:1034700002D909B0BDE8F08304F1040234BF236827
:103480000023AA4204F1080234BF60680020AA4267
:1034900004F10C0234BFA6680026AA4204F110020F
:1034A00038BFE76804F1140128BF0027AA4238BFDB
:1034B000226904F1180C28BF0022A94238BF6169B3
:1034C00004F11C0E28BF0021AC4534BFD4F818C04D
:1034D0004FF0000CAE4534BFD4F81CE04FF0000EA6
:1034E000CDE90421CDE90030CDE906CE2346CDE972
:1034F000026742464946012003F0C8FF2034B6E780
:103500002500010876FD0008F0B5A5B004460021AD
:103510003C2215A814AE14910CADFFF7C0FB40225D
:103520003146204600F01EFF29462046202200F0AA
:1035300025FB2C21284603F070FF08B120230370DF
:10354000A268236B7AB31168626C184F94F8340048
:10355000009102F0030E12F4807FC2F3C10C144AF2
:103560000A92A26E57F82C700992DFF848C0226FB9
:103570000892D4F88C205CF82EC00792D4F89020E2
:103580000D490B9614BF4FF0500E4FF02D0ECDE9A4
:103590000552CDE90107CDE903CE084A012003F029
:1035A00075FF25B0F0BD4FF0FF31CDE75C0001089D
:1035B000ECFD00086C000108A7FD000810000108E0
:1035C00008B5072002F0D8FCFA2001F071FC0720B2
:1035D00002F0E0FCFA2001F06BFCF2E7F8B50D46D2
:1035E000144614491E46D7180346134A012003F017
:1035F0004DFF114A11492346012003F047FF0E4AAF
:103600000F493346012003F041FF7DB10D490A4ABD
:1036100001202B4603F03AFFA5F1200039468442F1
:1036200088BF2846BDE8F840FFF718BF3946204656
:10363000F8E700BFF5FD00083000010804FE0008AF
:1036400014FE000827FE00082DE9F04F834F1E46A8
:103650003B78B3B005468A4690465FFA83FBEFF3AA
:10366000058333B17E4B1C683B78072B03D9FFF7EA
:10367000A7FF7C4BF7E7BBF1040F40F2A680EFF306
:10368000118980235FFA89F983F3118800F002FA27
:10369000EFF3058323B9636C03F00303022B01D11D
:1036A00008233B70002E40F093806F4802F06EFEBE
:1036B00038786D4B099307288CBF0020012008A99A
:1036C000CDE90B5A0894CDF8288000F0EDF80620DB
:1036D00002F052FC03F022F8A66846B1636C03F0D6
:1036E0000303022B7AD0306800F08CF906460DA84F
:1036F00003F07AFC0DF1B10303930DF17E03029305
:103700000DF1690301930DF14903584A584900939B
:1037100001200DAB03F0BAFE5649574B574AE06BF8
:10372000002E18BF0A46002D08BF1D46CDE9032014
:10373000B8F1000F18BF43464C4A0095CDE901A1EE
:1037400001204F4903F0A2FE474802F027FF464BF5
:1037500000201968079102F001FF0799266FA46EF7
:103760008142054606EB040803D300F50063994245
:103770006FD3B14201D3414568D30B46414A424918
:10378000012003F083FE4FF0010A00213F484FF46F
:1037900000632A46FFF722FFEFF3058121B1304B8A
:1037A0001B68D3F8A43019688E4201D8884517D811
:1037B0000B46344A3649012003F068FE00213548A3
:1037C00023463246FFF70AFF0FE04FF000095FE79C
:1037D000502231462448FFF754FA69E7002686E76D
:1037E0000029ECD1BAF1000FE9D102F097FF3B7844
:1037F000072B21D9284A2949012003F047FE002040
:1038000002F0ACFE4FF40062034600922449224AC3
:10381000012003F03BFE0021224800F013F902F0E2
:103820007DFF02F07BFF08A9022000F03DF8002197
:10383000022000F079F81AE7BBF1040F03D989F3ED
:10384000118800F035F933B0BDE8F08F0029B6D10A
:10385000CBE70029C9D04FF0000A97E7500E0020AF
:10386000680E0020600E0020D01100204B000108DF
:103870003EFE0008ECFD0008C010010837FE0008FD
:1038800063FE00083F000108A4FE0008D8FE0008FF
:10389000DCFE000811FF00081A00010816FF0008EE
:1038A00084FF000809350008F8B50E4F3B6805464F
:1038B0000E46B3B1EFF31184802383F3118800F037
:1038C000E9F8386830B9E4B284F31188BDE8F8400B
:1038D00000F0EEB8D0E9003732462946984738461E
:1038E000F0E7F8BD2012002038B50446EFF311854B
:1038F000802383F3118800F0CDF80A4A136843B996
:1039000063601460EDB285F31188BDE8384000F0C3
:10391000CFB8A342F6D0A06899688842F0DC1A1D9F
:103920005B68ECE728120020F8B50E4F3B680546AF
:103930000E46B3B1EFF31184802383F3118800F0B6
:10394000A9F8386830B9E4B284F31188BDE8F840CA
:1039500000F0AEB8D0E900373246294698473846DD
:10396000F0E7F8BD281200201A4A1B4B70B5C2E9D7
:1039700000220821002450681C720139C3E900208C
:103980000360536003F12C03F5D1144B124AC3E9D1
:1039900000331146082002265D6881F8686101F550
:1039A000B0740138C1E958352C6001F12C015C601C
:1039B000F2D10B4BC3E9003308215C6802F530708B
:1039C0000139C2E9B034206002F130025860F4D10C
:1039D00070BD00BF301200204012002038120020BD
:1039E00080160020806808B100F50B707047000059
:1039F000034B1B68986808B100F50B70704700BF57
:103A0000600E00200346EFF31181802282F31188BB
:103A10000A4A106860B1002B0EDB094A1268013AAD
:103A20001A4050F8220018B1026B9A4218BF0020C9
:103A3000CBB283F3118870470020F9E75C0E0020B9
:103A40004C0E00202DE9F84306460F46EFF3118592
:103A5000802383F3118800F01DF8DFF83080DFF851
:103A600030900024D8F80030A34206DC00F020F8A3
:103A7000EDB285F31188BDE8F883D9F8003053F82A
:103A8000240008B13946B0470134EBE74C0E002062
:103A90005C0E0020EFF3058333B9044B1A68B2F8CB
:103AA00048300133A2F84830704700BF600E002054
:103AB00070B5EFF3058232BB154E3468B4F9483067
:103AC000012B21D1EFF31185802383F31188114B52
:103AD000A4F848201B683BB100F006F920B1EFF3D1
:103AE00005830BB9022000DF636C03F01803082B79
:103AF00006D1E36C23B933689C421CBF1423E364F2
:103B0000EDB285F3118870BD013BA4F84830FAE7A7
:103B1000600E0020540E0020054B1B682BB1186B63
:103B20000028CCBF0020012070470120704700BF53
:103B3000600E002038B5104A15680C4615B96FF0B4
:103B4000010038BD78B1FFF75DFF0028F7D06B6C3E
:103B500003F00303022B07D0AA6883689A4203D0BC
:103B60006FF00C00EDE72846836E2360C36E636040
:103B7000036FA3600020E4E7600E0020034630B42A
:103B800008461146EFF31182802484F3118893F8DC
:103B90004040052CD2B212D15C6F25796D070ED54D
:103BA00024680C4D24F0004335EA040408BF4FF0AC
:103BB000FF3382F31188084A30BC03F044BB82F320
:103BC000118893F84040054B0A4653F8241030BC46
:103BD000FFF72FB8FEFFFF7F7C000108F800010807
:103BE0007047000073B502460B46EFF31185802144
:103BF00081F3118813490C681349009104F15006B0
:103C00000194304600F0FAFF204601F017FD06232C
:103C100084F84030002323600C4B19685A686260B6
:103C200071B91C605C60EFF305830BB9022000DF03
:103C3000304601F03FF8EDB285F3118802B070BD57
:103C40001460EFE7600E0020D13C0008B40E0020A5
:103C500010B5044618B9BDE8104001F09FBEFFF74B
:103C60002AFA201841F100010130BDE8104041F16D
:103C70000001FFF7B7BF000038B50446EFF3118528
:103C8000802383F3118890F84030062B17D1D0E9B8
:103C90000032C2B90D490B6003B90C4B5A600023C6
:103CA000C4E9003304F1500001F004F8204601F0AB
:103CB0003BFC20B1EFF305830BB9022000DFEDB22E
:103CC00085F3118838BD1360E6E700BFB40E00200D
:103CD000FFF7D2BF00F51C500F3042F21073B0FB5B
:103CE000F3F0FFF7B5BF0000F0B5174D2A68B2F941
:103CF0004830002B25DC154C2368002002260327C2
:103D000013B9C4E90033F0BDD3F800C093F8341000
:103D100092F834E08E450DD25168C3E9002159B9BB
:103D2000536082F840602B6083F8407001201A468F
:103D30006346E5E71268EBE70B60536083F8406089
:103D4000F5E70020DFE700BF600E0020540E0020E2
:103D500003790B4A13F0040F036808BF0122002BFC
:103D60000BDBBFF35B8F50E8001F994204BF40E8B4
:103D7000002CBCF1000F0B46F1D10020704700BFB2
:103D8000FEFFFF7F2DE9F043494B90F804801C684B
:103D900085B0054608F00408EFF31186802383F30D
:103DA0001188E9462146484600F0B0FA99E8030038
:103DB00002AF87E8030004F18C023946384603F06D
:103DC00008FA384603F012FA38B9F6B286F31188C9
:103DD0006FF0030005B0BDE8F083BFF35B8FB8F16F
:103DE000000F2AD055E8000F40F0004345E80032AC
:103DF000002AF7D1BFF35B8F2E4B834338D020F0DE
:103E00000040FFF7FFFD98B30023A4F84A30656730
:103E1000204601F013FC052384F8403094F8342048
:103E2000AB687BB393F83410914213D25A68BAB995
:103E3000C4E900325C60AC602BE055E8003F5A1EDC
:103E400045E800210029F8D1BFF35B8F002BDBDDB3
:103E5000002028E01B68E4E7C4E90032146017E0A2
:103E6000C4E9003214605C6013E0B8F1000FEFD0D9
:103E7000AB68226B002B0CBF00234FF000431343B1
:103E80002B60E5E7EA68002AE6D1C4E90033AC60BC
:103E9000EC60EFF305830BB9022000DFB4F94A00B0
:103EA0000028E2D04042F6B286F3118892E700BFC4
:103EB000600E0020FEFFFF7F2DE9F34107460C4610
:103EC000EFF31186802383F31188FEF759FB054633
:103ED000C8B1FCB1114B1D68FFF7EDF8241805F1CE
:103EE000500841F100030E490195621C009143F115
:103EF0000003404600F082FE3846FEF71DFB0546F3
:103F0000404600F0D7FEF6B286F31188284602B08C
:103F1000BDE8F0816FF06D05F5E700BF600E002091
:103F2000253F000810B5EFF31184802282F3118839
:103F300090F84030052B02D16E2100F0A6F8E4B2D3
:103F400084F3118810BD000070B5027902F00402FC
:103F5000EFF31185802383F31188D2B1BFF35B8F18
:103F600050E8003F43F0004140E80014002CF7D136
:103F7000BFF35B8F002B20DB26496FF0004293429A
:103F80000CBF13460B4603600020EDB285F3118889
:103F900070BD03686FF000418B4237D0BFF35B8F79
:103FA0005E1C50E8004F9C4204BF40E8006CBCF12E
:103FB000000F2346F0D1002CE6DA8468002CE3D011
:103FC00021680023F9B9C0E90233C4E9003342B1E2
:103FD0008368226B002B0CBF00234FF00043134378
:103FE000036004F1500000F065FE00236367204683
:103FF00001F09AFA0028C7D0EFF30583002BC3D154
:10400000022000DFC0E781604B60DEE76FF04A000E
:10401000BBE700BFFEFFFF7F70B504460D46FFF70C
:1040200039FDEFF31186802383F3118823795B0731
:1040300017D54FF0FF332360A3684BB12046FEF73E
:10404000C1FAF6B286F31188FFF732FD002070BD89
:104050006FF000432360F4E72046FEF7B3FA013D1A
:104060002DB22368002B01DA002DF5DC2368002B2C
:10407000E7DBBFF35B8F54E8002F9A4204BF44E8AC
:10408000005100291346DCD0F1E738B5436F1A79A7
:1040900012F0040203D0042921D07D291FD0D0E9D9
:1040A0000045EDB99C60ECB9DD600024C0E9004436
:1040B00052B9BFF35B8F53E8002F013243E800256C
:1040C000002DF8D1BFF35B8F4467A0F84A1001F0D0
:1040D0002BFA20B1EFF305830BB9022000DF38BDC6
:1040E0002C60E0E76560E0E770B50446002500F16C
:1040F0001006636AAB4200DC70BD3046FEF762FA20
:104100000135F6E738B50446FEF716FA256A00F0E1
:1041100017FC854208D004F11005A36A002B0BDCC4
:10412000E36A0133E36202E0A36A0133A36220463B
:10413000BDE83840FEF746BA636A01336362204641
:10414000FEF740FA2846FEF7F7F92046FEF7F4F9A5
:10415000636A013B6362E0E738B50446FEF7ECF9B9
:10416000256A00F0EDFB85420BD1A36A013B002BD1
:10417000A3620BDC4FF0FF3323622046FFF7B4FF4E
:1041800004E0E36A013B002BE362F6DD2046BDE874
:104190003840FEF717BA70B5044600F0D1FB05466B
:1041A0002046FEF7C9F904F11006E36A002B0DDC86
:1041B000A36A002B07DC0133A36225622046BDE819
:1041C0007040FEF7FFB9226AAA42F4D0636A013355
:1041D00063622046FEF7F6F93046FEF7ADF9204659
:1041E000FEF7AAF9636A013B6362DEE710B5044695
:1041F000FEF7A2F9A36A013B002BA36205DC4FF096
:10420000FF3323622046FFF76FFF2046BDE81040D2
:10421000FEF7D8B9F0B53348334E344C3449354AFB
:10422000354F0023C6E90033C4E90033C0E9003349
:10423000C1E90033C2E900334FF0040E3568BC46D3
:1042400047F81C3B002D3DD1C6F800C0BEF1010E61
:10425000C6F804C0F2D1294B0426F446256883F839
:104260001CC01F4643F820CB85BB2760013E67601A
:10427000F4D1234C08234FF0020C076884F81CC0CB
:10428000254644F8206B27BB0560013B4560F4D10F
:104290001C4C04200E682375254644F8183BDEB9F3
:1042A0000D6001384D60F5D1174B082402251668C2
:1042B0001D75194643F8180B8EB91160013C516009
:1042C000F5D1F0BD7568C5F800C0BFE765682F601F
:1042D000CCE747683D60D8E74E683560E1E756684F
:1042E0003160EBE708170020F816002000170020C7
:1042F0001817002010170020881600202017002013
:10430000A0170020A0180020001900202DE9F3417B
:1043100005460C4609B9124B1C68A6686F4638461C
:1043200002F04CFFEFF31188802383F31188D6F855
:1043300014625EB95FFA88F888F3118897E8030081
:1043400085E80300284602B0BDE8F08173680BB130
:10435000A34203D1317A384602F00FFF3668E8E70E
:10436000600E00202DE9F3410E46154618B112B13A
:10437000026B002A04DC0020307002B0BDE8F0813E
:10438000426C02F00302012A0AD1D0F8AC2000925C
:10439000C36B104A2946304602F055FF04460CE034
:1043A00001F00AFB0028F9D0DFF82C800746002432
:1043B00057F8043F0BB1AC4204D3681EA04228BF9B
:1043C0002046DAE7291B3019424602F03CFF04443C
:1043D000EEE700BF1C010108230101082DE9F041AF
:1043E000064686B0A8200D4617469846FEF788FC7C
:1043F0000446F8B145F400450023456404930F9B3F
:1044000003930E9B02930D9B01930C9B00933A46E2
:104410004346314600F012F8051E06DA2046FEF744
:1044200053FC284606B0BDE8F0812046256B00F01D
:10443000B4F9F6E76FF00B05F3E700002DE9F34759
:1044400090F84460DDF828A088463146054691463C
:104450001F4600F065FE041E48DB284600F081FA86
:104460000D99A86800F034FD041E06F0030617DB62
:104470000E990122284600F035FF041E10DBBFB163
:1044800052463946284602F000F9041E09DB0B9B10
:10449000184A00964946284600F078F9041E16DAB4
:1044A0006FB1284600F05AFA284600F09FFE1DE042
:1044B00032465146284602F015F8041EE7DAEB6E44
:1044C000002BEED03146284602F056F8E9E72846A0
:1044D00000F07CFB041EE3DB0C9A4146284600F00A
:1044E000DFF8041EDCDB284600F054FE204602B054
:1044F000BDE8F087C9470008D0E9003262B9074932
:104500000B6003B9054B5A60416C0023C0E90033CE
:1045100001F0030101F0CCB81360F2E7400E002077
:104520002DE9F74F1E46594BDFF864811F68594D3E
:10453000CDE900120446EFF31182802383F3118842
:10454000D8F80030D5F80090DFF84CB101330021E5
:10455000DBF8000081421ADBD2B282F31188DBF86B
:104560000000C000FEF7CCFB0146002800F08B8065
:10457000EFF31182802383F31188D5F800A0D14591
:1045800058D0D2B282F31188FEF79EFBD3E7DBF856
:104590000000012B00F1FF3CB8BF01230CEA030C23
:1045A00009EB8C0059F82CA0BAF1000F3FD1046040
:1045B000D2B22363C8F8003082F31188019B9DF8C2
:1045C00030209DF8001084F83410C4E90E36636C76
:1045D00084F8351002F0030223F01B03134343F069
:1045E000080363641423E364D7E9230104F18C0313
:1045F00083E8030084F840A0204601F0DFFEEFF3DB
:104600001182802383F31188244BC4F804A0196815
:1046100021601968A1BBC3E90044042384F8403039
:10462000D3B283F31188002003B0BDE8F08F0133CB
:1046300001318DE7DBF800305B00CBF80030DFF8AC
:1046400058B04FF0000CDBF8003003EBD373BCEB39
:10465000630F05DB2960D2B282F31188484693E7E5
:104660005AF82CE0BEF1000F07D0DBF80000DEF8AE
:1046700030300138034041F823E00CF1010CE2E74F
:104680004C601C60C9E76FF00B00CDE7600E0020A6
:10469000480E00205C0E00204C0E0020400E002032
:1046A000394B2DE9F74F002914BF8B469B468146B5
:1046B0005846154602F0C6FE00F1010A002D46D10B
:1046C0002F46B91C4FEA810848460AEB810101F0E8
:1046D000C1FF0646002853D08044C0F800805846E9
:1046E00002F0B0FE5246431C594640460093FEF786
:1046F000A0FA009B043D08EB0304AAEB030A4FF069
:10470000000B3346BB4525D1002448F8044C4846ED
:1047100001F050F9066113E002F094FED9F8683018
:104720000130824453450FD90137B7F5807FC8BFA8
:104730006FF0060455F827000028EDD1002CC0D0FA
:10474000204603B0BDE8F08F6FF02304F2E70024A9
:104750002746EFE743F8044F55F8040F019302F0A2
:1047600071FE5246431C296800932046FEF761FA09
:10477000009B0BF1010B1C44AAEB030A019BC1E750
:104780006FF00B04DCE700BF2701010810B49DF8AF
:104790000440019410BCFFF7C3BE38B50546EFF3E3
:1047A0001184802383F3118800F056FF284600F01F
:1047B000BBFE20B1EFF305830BB9022000DFE4B2AA
:1047C00084F3118838BD000038B50E4B1D686B6C42
:1047D000284603F0030401F0EFF80246002012B16E
:1047E00052F8203033B9022CEB6B05D111469847B3
:1047F00000F0BEF80130F2E70146184602F0B2FCC4
:104800000120F5E7600E002037B50B789A060546C3
:104810000C4608D5FFF7F6F828B100F18C03D4E96F
:10482000010183E80300207800F0080310F0040081
:1048300014D0627801923BB1A17801AA284601F018
:1048400071F8002003B030BD01A9284600F062FFD6
:104850000028F7D123781B07F3D5EDE7002BF0D024
:1048600001A901F029F8F3E72DE9F04106460D46CC
:1048700000240DB1002C02DA2046BDE8F0812B792E
:10488000022B0BD0032B12D0012B2FD13046FFF778
:10489000A9F8A968FDF71AFD2D68EAE73046FFF789
:1048A000A1F8D5E90212FDF7FAFC0446F4E7304618
:1048B000FFF798F8A9680746FDF708FDD5E9032337
:1048C00005F11401384602F075F9041EE4DBAA680C
:1048D00094420ED021463846FDF7E1FC214600EA1D
:1048E000E0783846FDF7F2FC4446D5E76FF0150452
:1048F000D2E70024D0E710B54FF0FF33D8B15C1CED
:1049000004D0002BD4BF0020012010BD0479022C5C
:1049100005D0032C01D0012C09D1836803E0836802
:104920008B4206D0C3685B1A18BF4FF0FF33006894
:10493000E4E70123FBE7591C08BF82F00103E0E72D
:10494000054B186838B190F84030032B01D1006B4B
:1049500070476FF002007047600E00201C30FFF7B8
:10496000F7B90022C0E9042211461C30FDF7C2BD90
:1049700008B50D4B1C68636C03F00303022BC5B232
:1049800002D0204600F0F2FCEFF31183802383F382
:104990001188636C43F4807320466364294601F0F8
:1049A00005F9284601F0C6FD600E00202DE9F04F04
:1049B000814689B08A461D46174602B1176835B34D
:1049C000D5E903B86C78139B13B900F079FA13900A
:1049D000A820FEF795F90646002838D04FF400428B
:1049E0004264129A139B0393CDE901A204972246D5
:1049F000CDF800B043464946FFF720FD041E11DA0A
:104A00003046FEF761F9204609B0BDE8F08F07A9EE
:104A1000284600F051FF041EF5DB079CA8464FF422
:104A2000006BD0E7376B4DB129463846FFF7ECFEF7
:104A3000041E03DA3046FFF75FFDE4E73046FFF778
:104A4000ACFE002F14BF3C464FF0FF34DBE76FF0A5
:104A50000B04D8E70C4A0D4B002030B50421106040
:104A60000124506015681C7218604DB9136001393B
:104A7000536003F15003F5D1054B1960596030BD07
:104A800055682B60F3E700BFC8190020D01900203B
:104A9000C0190020F8B58446EFF31186802383F314
:104AA00011881F4900250B6828462C462BB9F2B205
:104AB00082F311881C4650BBF8BDDA68D3F800E0D9
:104AC000624520D10A683AB19A420BD1C1F800E0A0
:104AD0004A689A4200D14C601C60B0B12B601D4600
:104AE0007346E3E717689F4209D10F683FB14F68EB
:104AF000BB4215BF1F684A60176014601C601268D3
:104B0000002AEFD1E8E72B46E9E71846E7E7066811
:104B1000854214BF0460002500F004F83046CAE75F
:104B2000C019002070B50446002847D0437A012BF5
:104B300003D9013B4372012070BD283000F0BAF860
:104B4000EFF31181802383F311881E4A1368E3B1C8
:104B50009C4211D000201D68AC4209D116683EB1BC
:104B60005668B44215BF266853601E6018602860FE
:104B70001B68002BEFD108E02368136053689C4248
:104B80004FF000030CBF53602360207A10F0010542
:104B9000CAB20DD0002323600B4B196829B91C60E1
:104BA0005C6082F311880020C6E759680C60F7E763
:104BB00082F311882046FEF787F8F4E76FF01500BE
:104BC000BAE700BFC0190020C819002010B518218D
:104BD000044601F03FFD68B1D4E91B239B1AC38052
:104BE000A368D3F808320360236BC360002303611A
:104BF000184610BD6FF00B00FBE70000F0B5059FF5
:104C000058B357B3EFF31184802181F31188C16841
:104C100021B1D0E90051696005680D60DFF840C03E
:104C2000DCF8001061450FD14D68C0E900154D68F2
:104C3000286048600699C760C0E904238160E3B238
:104C400083F311880020F0BDD1E90465961B63EB66
:104C50000505002DE8DB0968E4E76FF01500F2E7D1
:104C6000E40000202DE9F04104460E46EFF31185E3
:104C7000802383F311880E4F4FF000083B68BB423E
:104C800004D1EDB285F31188BDE8F081D3E90412B7
:104C9000611A66EB0202002AF3DBD3E900124A60D4
:104CA00019681160DA689868C3F80C809047E5E7E6
:104CB000E4000020A8B1EFF31182802383F3118870
:104CC000C3685BB1D0E900134B6001681960002331
:104CD000C3601846D3B283F3118870476FF0150094
:104CE000F8E76FF01500704738B506220446052135
:104CF00040F2E47002F0D7FB054D0346A3FB0532FA
:104D0000002005FB0122C4E90032A06038BD00BFCD
:104D100080510100F0B585B001F0C4FB6846FEF794
:104D2000CDF9EFF31185802383F31188154C2046CC
:104D3000FFF7DAFFD4E9003200990298DFF848C0A3
:104D40005B1A019962EB0102A168C4E90032091AF9
:104D5000A16000261846013B174662F100020029B7
:104D60000CDB16B1C4E90007A160EDB285F3118830
:104D70000449002000F00AF805B0F0BD61440126A6
:104D8000E8E700BF101B002000CA9A3BF8B50E4FA1
:104D90003B6805460E46B3B1EFF31184802383F3DD
:104DA0001188FEF777FE386830B9E4B284F31188D1
:104DB000BDE8F840FEF77CBED0E900373246294610
:104DC00098473846F0E7F8BD201B002070B5174D16
:104DD000D0E90036D5E900249B1A8268A86866EB02
:104DE0000404121A08D502F16E5202F5D612013BE4
:104DF00002F5206264F10004002CB8BF00220C48C8
:104E0000B8BF13464FF06405B8BF14461044094AB2
:104E100090FBF2F2A3FB053005FB0404D31844EB2E
:104E2000E272C1E90032002070BD00BF101B0020FB
:104E30007F9698008096980082B0002242F232114C
:104E4000B0F57A7F0BD8002240F25131642811D896
:104E500000220A2818D8002200BB02B07047019235
:104E6000019B8B4202DDA0F57A70E9E7019B0133DB
:104E70000193F5E70192019B8B4201DD6438E5E780
:104E8000019B01330193F6E70192019B542B01DD55
:104E90000A38DEE7019B01330193F6E70192019B9B
:104EA000072B01DD0138D7E7019B01330193F6E7BA
:104EB00008B54FF47A735843FFF7BEFF08BD0000F2
:104EC000024B1B689B68D3F81C027047600E0020E1
:104ED0002DE9F04707460D4649B3D0F81C42002C97
:104EE00050D100F527794846FDF7E4FA55F82460DB
:104EF0004FEA840AF6B9631DC7F82442C7F8203286
:104F00007CB14FEA83084046FDF7E6FE064658B3FB
:104F10000023A8F1140840F80A30454404F1FF3A90
:104F200054B90025C7F81C624846FDF7D3FA284655
:104F3000BDE8F0870134D9E755F8040C02F082FA95
:104F400000F101084046FDF7C7FE46F82A0090B977
:104F500004F18044013C06EB840454F8045F35B945
:104F60003046FDF7B1FE2E466FF00B05DAE7284616
:104F7000FDF7AAFEF1E755F8041D4246FDF759FE7C
:104F80005446CBE70025D2E770B5D0F81C4284B177
:104F9000002054F8203063B14A1E013B12F8016F23
:104FA00013F8015FAE42F9D00EB93D2D03D00130A8
:104FB000EFE76FF0010070BD2DE9F74F8946154608
:104FC0000646002875D009B10B7833B9D5B1304603
:104FD00003B0BDE8F04F00F073B8374B1B689C6816
:104FE00004F5277A5046FDF765FAD4F81C3283B1F0
:104FF00031462046FFF7C8FF011E0ADB35B950468F
:10500000FDF768FA284603B0BDE8F08F204600F0AF
:10501000E0FE304602F016FA8346484602F012FAE5
:1050200083440BF1020B5846FDF756FE804698B3B9
:10503000D4F81C02D4F82472F0B91820FDF74CFE05
:1050400038B30623C4F81C02C4F82032D4F81C324A
:105050001A4A43F82780D4F81C3203EB8703002553
:1050600001375D605946C4F824723346CDF800908C
:10507000404602F0E8F8C2E7D4F82032013BBB42D8
:10508000E4DCBD1DA90002F04BFB10B1C4E98705AB
:10509000DCE74046FDF718FE5046FDF71BFA0C24EE
:1050A000EFF3058313B9FDF7D9F904604FF0FF352D
:1050B000A8E71624F4E700BF600E002030010108C5
:1050C00070B5164B1B6804469D6828B9EFF305833D
:1050D000F3B14FF0FF3070BD0378002BF6D03D21C7
:1050E00002F09BF90028F1D105F527763046FDF74F
:1050F000E1F945B121462846FFF746FF011E02DBD4
:10510000284600F066FE3046FDF7E4F90020E2E7AD
:10511000FDF7A4F916230360DBE700BF600E002053
:1051200001F00301022970B5064616D1184C8460BF
:10513000D4F808324BBB0025C4E9035504F50B70C5
:10514000B460FCF727FF204600F0BAFD061E0EDA19
:105150002046FDF7B9FD304670BD4FF42C70FDF7C9
:10516000CFFD04460028E6D16FF00B06F3E7C4F844
:10517000AC5204F52770FDF77BF9C4E90B552A46BC
:10518000294604F11800FDF7B5F90026E3E700BF52
:10519000281B002070B58468002684F89862416C52
:1051A0000546C1F3400104F51E7002F076FAEE6088
:1051B000E26805F10C0362B9E3602361064B9C428F
:1051C0001CBF2B6B2360D4F808322268C3F8D021AF
:1051D00070BD22691360F0E7281B0020027D22B910
:1051E000037A5B0701D5FDF76FBD7047F8B584689A
:1051F0000546002C54D0426C02F00202EFF31181FC
:10520000802383F31188E368002B4FD00C30834256
:1052100011D000261F68874209D1E7683FB127698E
:10522000B84215BFEF6823611F601E60EE601B6807
:10523000002BEFD108E0E868E060206998424FF069
:1052400000030CBF2361EB605AB30023C9B281F3A2
:1052500011881BB304F52770FEF77AFD0028A4BF60
:105260000023C4F8AC32204600F065FD204600F073
:10527000E7FB204600F04DF904F50B70FDF742F80E
:10528000204600F08DFD04F51E7002F011FA237A1D
:1052900043F0040323722046FFF7A0FF0023AB6016
:1052A000F8BDE368002BD0D10123CFE7002AFBD063
:1052B000CBE7000010B50A48032101F089FC041E69
:1052C00008D1012101F0CEFA0221204601F0CAFAEC
:1052D000204610BD01DDFDF76FF86FF01604F7E70B
:1052E0009CFC000838B51346134A126804460D4664
:1052F0008168906888420ED0626C02F00302022A34
:1053000017D02A4601F50B7100F50B70FCF74EFF24
:10531000002801DA38BD0020002DFBD0636C03F0BB
:105320000303022BF6D029462046BDE83840FFF79C
:105330009BBA0020EEE700BF600E0020814210B54E
:1053400004460DD0FEF75EFB50B1436C43F40052AF
:1053500003F00303012B4264204603D100F022F83E
:10536000002010BD00F0F6FBFAE7000010B58368DE
:105370001B7A1B0712D4EFF31184802383F3118867
:1053800082680749137A43F008031372026B80683E
:1053900000F05AFDE4B284F3118810BD0020FCE750
:1053A0003D53000870B5054608B9032070BDFEF7EF
:1053B00029FB06460028F8D0436C13F48074F4D11E
:1053C00000F038FC88B90A4B1B68B34203D14FF098
:1053D000FF3001F07DFE28464FF0FF3100F00AF863
:1053E0002846BDE8704000F040BC2046DEE700BF24
:1053F000600E00202DE9F3410F460546FEF702FB43
:105400008668044606F527763046FDF753F820698E
:1054100000282BD005684FF00008226952B1824263
:1054200011D102682261626982420CBFC4F8148003
:10543000C0F8008047610430FDF7C4F8002D31D07A
:1054400028462D68E9E7116881420BD1216949B1ED
:105450006169814215BF016862611160C2F8008014
:10546000C0F800801268002AEDD1E3E7A068C368A5
:105470000BB11B68B3B1636CDB0413D42946012361
:1054800001AA00F011F8054608B9019B9F60636C02
:1054900043F4804363643046FDF71CF8284602B0AD
:1054A000BDE8F0810025F2E72DE9F843054600F557
:1054B000277630460F4690469946FCF7FBFFEC6A8C
:1054C0003CB121686368BB4217D011B10C46096832
:1054D000F8E73046FCF7FEFFB9F1000F15D00C20BD
:1054E000FDF70EFC044690B147603046FCF7E2FF42
:1054F000EB6A236003B92C63EC623046FCF7EAFFE9
:10550000C8F800400020BDE8F8831620FBE70C2017
:10551000F9E710B5C06A30B10468FDF7D5FB14B1E6
:1055200020462468F9E710BD10B52C4A90F83410D5
:105530001368B3F94840002C1EDD93F834408C42C8
:105540001AD2274A13686BB393F834408C4206D2C0
:10555000596851B9C0E900315860106029E01B68F2
:10556000F1E7C0E90031086022E0C0E900310860DD
:1055700058601EE01B680BB393F834408C42F9D29C
:10558000596851B9C0E90031586010601DE0C0E9A8
:1055900000310860506002230CE0C0E9003108606F
:1055A0005860F8E751680029DBD1C0E9003310608A
:1055B0005060012380F8403000200EE0516800293F
:1055C000E5D1C0E90033C2E90000032380F8403090
:1055D0000368022283F84020012010BD600E0020E5
:1055E000540E002010B5144A90F84010034602EB08
:1055F000C10052F831400079020744BF5A6FA41825
:105600005A689AB910F0040004D01A68032182F88D
:1056100040100120D3E9002151B9226052B96160E4
:105620000022C3E9002283F8402010BD0020F1E7EA
:105630000A60F3E75160F3E76C0E002008B5FFF74E
:10564000D1FF044B1B681BB1BDE80840FEF74CBB03
:1056500008BD00BF540E0020D0E9003230B50ABBAF
:1056600090F84050114951F8354001EBC5010979D6
:10567000090744BF416F64182360ABB990F84040FC
:105680000A4B53F8341003EBC4031B791B0744BFC8
:10569000436FC9184A600023C0E90033436780F8AC
:1056A000403030BD1360E8E75A60F4E76C0E00202C
:1056B00038B50D46044638B3006BFFF7EBF9216BA4
:1056C00081B1EFF31182802383F311880F4B1B68A4
:1056D000013B0B400E490968002041F82300D3B27A
:1056E00083F31188E36E1BB12946204600F044FF86
:1056F0002046FFF77BFD2046FFF730F9636C1B0463
:1057000002D52046FDF7E0FA002038BD4C0E0020FF
:105710005C0E002038B504460D46B1B1FEF7BAF96B
:105720000B4B186834B1036BA34203D02046FEF73D
:1057300069F938B1296800F01DF80446FEF7B8F998
:10574000204638BD6FF00204F8E76FF01504F7E764
:10575000600E002010B5FFF7DDFF041E08DAEFF33E
:1057600005831BB9FCF77AFE644204604FF0FF34F6
:10577000204610BD2DE9F8434B1EFE2B04460E4675
:105780007AD8EFF31188802383F3118890F8405082
:10579000022D30D0032D3DD10568002D00F083800F
:1057A00095F8343099427EDC404B1B68B3F94830A1
:1057B000002B20DD3E4F4FF001092846FFF712FF76
:1057C00095F834203B68002B5FD093F83410914259
:1057D00006D25A6852B9C5E900325D603D605BE0AF
:1057E0001B68F0E7C5E90032156054E0C5E90032F6
:1057F00015605D6050E000F0E3F820B1EFF3058341
:105800000BB9022000DF5FFA88F888F311880020C6
:10581000BDE8F883274B03EBC50253F83530127906
:10582000110744BF416F5B18D207F6B23BD5D0E9F0
:10583000002098B91A609AB958600022C4E9002281
:1058400084F834601A68D2B192F83410B14209D2A7
:10585000516861B9226054601C60D4E70260EAE7D5
:105860005060EAE71268EEE7626014600BE0C4E99A
:1058700000210C605460C6E76FF01500C8E75A6855
:10588000002AF1D11C605C60BDE77A68002AA9D1CA
:10589000C5E900333D607D6085F84090256895F846
:1058A00034309E4289DB84F83460ACE7600E00201F
:1058B000540E00206C0E002038B50C46E9B1104A99
:1058C000126810B1116B814204D192F83430236018
:1058D000002038BDEFF31185802383F31188FEF794
:1058E00091F838B190F8343023600020EDB285F3A0
:1058F0001188EEE76FF00200F8E76FF01500E8E7B7
:10590000600E002010B5FFF7D7FF041E08DAEFF392
:1059100005831BB9FCF7A2FD644204604FF0FF341D
:10592000204610BD70B50D461646E0B91A4B1C68EE
:10593000FEF7B0F84CB3022D2AD83368013BFE2B9A
:1059400026D8EFF31182802383F31188636C012D35
:1059500023F0180363640AD0E9070AD443F008036C
:105960006364142304E0FEF74DF80446E0E70023E7
:10597000E364D3B283F3118820463168FFF7FAFE5F
:105980000446FEF795F8204670BD6FF00204F8E774
:105990006FF01504F5E700BF600E002008B5044B5A
:1059A000186890F83410FFF7E5FEC01708BD00BF77
:1059B000600E0020C06E7047C36E1869704700000B
:1059C00070B505460E46FFF70DFE85F834600446B7
:1059D0002846FFF7A9FD84EA00058442EDB204D011
:1059E000034B1B680BB1FEF77FF9284670BD00BF63
:1059F000540E002070B504460026E56F4DB12B68AB
:105A0000E3670BB9C4F880302E60284600F04EF8EA
:105A1000F3E7D4F8840048B10368C4F884300BB9C4
:105A2000C4F88830056000F041F8F2E704F18C001A
:105A300001F0C9FB04F19400BDE8704001F0BEBB69
:105A4000F8B50446EFF311838026DBB286F31188A4
:105A50000027D4F80C52A5B98026D4F8140210B34C
:105A60000268C4F814220AB9C4F81822056083F346
:105A7000118800F045F8EFF31183DBB286F311884B
:105A8000EBE72A68C4F80C220AB9C4F810222F6088
:105A900083F31188284600F031FAEFF31183DBB26B
:105AA00086F31188D5E783F31188F8BD027F03469A
:105AB00072B9EFF31181802080F311881A600E4AC9
:105AC000106880B913605360CBB283F311887047BC
:105AD000022A0BD1EFF31181802282F31188002278
